:020000040000FA
:1000000020040020F1000000F9000000D5000000ED
:1000100000000000000000000000000000000000E0
:10002000000000000000000000000000FD000000D3
:100030000000000000000000FF00000001010000BF
:1000400003010000030100000301000003010000A0
:100050000301000003010000030100000301000090
:10006000030100004D09000003010000030100002E
:10007000BD090000030100000301000003010000AE
:100080000301000003010000030100000301000060
:100090000301000003010000030100000301000050
:1000A0000301000003010000030100000301000040
:1000B0000301000003010000030100000301000030
:1000C0000348854600F07AF800480047E510000034
:1000D0002004002004207146084202D0EFF309807A
:1000E00001E0EFF308807146004A10477D040000EC
:1000F0000448804704480047FEE7FEE7FEE7FEE7C6
:10010000FEE7FEE76D080000C100000030B50B46B9
:10011000014600202022012409E00D46D5409D42E1
:1001200005D31D469540491B254695404019154667
:10013000521E002DF1DC30BD03460B439B0703D05C
:1001400009E008C9121F08C0042AFAD203E00B789C
:100150000370401C491C521EF9D27047F0B51FB401
:100160000646002082B005464024019100901BE025
:10017000019922460F46304600F042F8049A059B4A
:10018000801A994110D310461946224600F028F8EB
:10019000361A8F410197224601200021009F00F06E
:1001A0001FF838184D4100902046641E0028DFDCFF
:1001B000019B00982946324607B0F0BD064C012548
:1001C000064E05E0E36807CC2B430C3C98471034FF
:1001D000B442F7D3FFF778FF50120000701200000E
:1001E00010B5202A04DB0146203A9140002010BDC2
:1001F000914020239C1A0346E3401943904010BDD0
:1002000010B5202A04DB0846203AD040002110BD5A
:100210000B46D340D0402024A21A914008431946EF
:1002200010BD00000EB509490EC900910192810F61
:100230008A00029369468A58054951184A68C306DC
:10024000DB0E0120984002434A600EBD18120000E8
:100250000002005002490A6802430A607047000029
:100260000002005010B500F0B9FA0148006810BD56
:100270000000002002480068C00700D00148704715
:1002800000020050001BB70004480068800702D538
:100290000120C0037047002070470000000200509A
:1002A00010B500F09BFA0448006941060348006855
:1002B00000D5400810BD00000002005000000020E2
:1002C00010B500F08BFA0448006901060348006885
:1002D00000D5400810BD00000002005000000020C2
:1002E00008B511A0006800901048016A001301428F
:1002F00001D0002008BD080301D50D4800E00D48DD
:100300008A03F7D40A04920F6B469B5CCA058904E2
:10031000D20DC90E891C8008921C59435043FFF727
:10032000F5FE800008BD000001020204000200503A
:1003300000805101001BB70008B511A000680090B3
:100340001048016A0013014201D0002008BD0803D3
:1003500001D50D4800E00D488A03F7D40A04920F36
:100360006B469B5CCA058904D20DC90E891C8008A6
:10037000921C59435043FFF7C9FE800008BD00009E
:10038000010202040002005000805101001BB7006E
:10039000F3B5114C81B0E5680F4610200540206888
:1003A000042630432060102000F052F82069072115
:1003B00008432061A069000900013843A061206959
:1003C000884301990843206100F008FA002D02D10A
:1003D0002068B0432060FEBD00020050F0B51A4B0B
:1003E00086B01C460834F0CC009401ACE0C418CBB5
:1003F00005940493840A23061B0E0ED003039B0F5F
:100400009B0004ADEB58114D5B19E5B28405E40E79
:10041000A5401C68AC4314431C60420E520710D028
:100420008200920F92006B469A58084B083BD218F4
:1004300003015B0FC001C00E83401068984308435E
:10044000106006B0F0BD000000120000180200505D
:1004500010B504460749084B05E00A46491E002A24
:1004600001DC002010BDDA6820469043F5D1012060
:1004700010BD000080F5200000020050044603A0DB
:1004800000F0D0FB204600F037FEFEE7496E204822
:10049000617264204661756C742048616E646C659D
:1004A000720A0000BFF34F8F04490348C860BFF3CE
:1004B0004F8F00BFFDE700000400FA0500ED00E0EB
:1004C000F8B53C480021C161426892089200426040
:1004D0003848394A403002600162084601263146F8
:1004E0008140C90619D5334980310C6B032742007E
:1004F0003B46934002259C4395402C430C630C6B78
:1005000015461035AF40BC430C634C6B96409C4382
:1005100034434C634A6BBA434A63401C0628DDDB14
:10052000244C1021204600F0BDF81021204600F098
:10053000BEF8E1221923D2000021204600F042F843
:100540000121204600F0AEF80121204600F0AFF86E
:10055000E122282312010121204600F033F8022174
:10056000204600F09FF80221204600F0A0F8E1228A
:100570003C2352010221204600F024F804212046A9
:1005800000F090F80421204600F091F850230B4A27
:100590000321204600F016F80821204600F082F8DA
:1005A0000821204600F083F80549486802221043DC
:1005B0004860F8BD000004405F090000302A0000D8
:1005C0000C000020FFB504463348324F0126304D61
:1005D000406981B0BC4201D1A10201E0012149077B
:1005E000084202D1FFF7A8FE08E000F0F7F8BC428D
:1005F00002D1FFF755FE01E0FFF762FE07460399BF
:10060000FFF784FD00903146FFF780FD01210904CA
:10061000884201D8054605E02048761C864201D272
:100620000098F0E7314669433846FFF76FFD07460B
:100630000298400880000019761E46610298012148
:1006400046000320B040029A0904914008436168C3
:10065000814361600299681E89000D192863049A1C
:10066000401C50436421FFF751FD28658034216B05
:100670000B480222B0408143B24011432163616BB9
:1006800081430120B04001436163384605B0F0BDAD
:10069000FFFF00000000044000020050FF0F0000B8
:1006A000030003008030826D0A4382657047026A4E
:1006B0000A4302627047000070B55920334C16227D
:1006C00088212060226021602368002BF9D0304807
:1006D000FFF7C0FD2120FFF7BBFE0A20FFF7BAFDA0
:1006E0000A20FFF7B5FE00210720FFF751FE294D34
:1006F0002846FFF797FD0321002209062846FFF749
:100700006DFE254D2846FFF78DFD072100220903C8
:100710002846FFF763FE214D2846FFF783FD0121A0
:10072000002209072846FFF759FE1848C03881689B
:10073000090A0902816081683322114381600168DE
:100740000F221204914303225204891801600168A8
:100750000F2212039143032252038918016001689A
:100760000F2212029143032252028918016001688C
:10077000F022914360310160016809090901891D76
:10078000016000F02BF80020206070BD00010050D7
:1007900001200000103D80570300C05E1400C053CC
:1007A0000521020E090751188B680122824013436C
:1007B0008B608868904388607047000006498A69AA
:1007C0001202FCD408600A2804D188690002FCD413
:1007D0000D2008607047000000000540F8B51C4D72
:1007E000286944071BA000680090296A640F281339
:1007F000014201D0002016E0080301D5164800E0B0
:1008000016488A030FD40A04920F6B469B5CCA05F4
:100810008904D20DC90E891C8008921C594350438B
:10082000FFF774FC80000E4E022CB06002D00D4920
:10083000A0000858A9690907090F491CFFF766FCC1
:10084000094930604A108018FFF760FC7060F8BDFD
:10085000000200500102020400805101001BB70099
:1008600000000020B011000040420F00704700005F
:1008700010B50A4C7D220121D200C906204600F0A5
:1008800045F82068610508432060081504490860A0
:10089000206889050843206010BD00000001014068
:1008A00000E100E010B588B00446202211496846F6
:1008B000FFF742FC104911488C4202D14069000AFE
:1008C0000CE00F498C4202D14069000B06E00D4953
:1008D00040698C4201D1000C00E0000D4007400F40
:1008E000022804D080006946085808B010BD0648A8
:1008F0000068FAE7301200000000014000020050DA
:10090000000101400000114000000020F7B517462B
:100910000646FFF7C7FF054600244008B84201D24B
:10092000022008E039462846FFF7F0FB040E02D00B
:10093000611CFFF7EBFB0199214331607060641C7F
:10094000604301462846FFF7E1FBFEBDF8B51849B4
:100950008868C007C00F29D00120886000F020FC03
:10096000144DFF21F531A868FFF7D0FB00291DD1F8
:10097000114F38682C887D26401CF60060433146B4
:10098000FFF7C4FB38626868800701D5641C00E08B
:10099000641EA0B202212C80B04202D16868884354
:1009A00003E0002802D1686808436860F8BD0000D1
:1009B000000101400C0000204000044010B50B4C29
:1009C000E06911210902084202D104E000F002F9B5
:1009D000A1694904FAD5A16920467122114203D0C8
:1009E0000921890200F07EF810BD000000000540DA
:1009F00010B51848FFF7D4FE174CE12149022046F4
:100A000000F0A4F81121204600F088F801201349D5
:100A100000030860FFF726FC014611A000F002F970
:100A2000FFF728FC014615A000F0FCF8FFF72CFCAE
:100A3000014618A000F0F6F8FFF732FC01461BA0B3
:100A400000F0F0F8FFF73CFC01461FA000F0EAF8C8
:100A500010BD0000100000040000054000E100E0AF
:100A60000D0A434C4B5F47657443505546726571A0
:100A7000203A202538640D0A00000000434C4B5FEB
:100A800047657448585446726571203A2025386489
:100A90000D0A0000434C4B5F4765744C5854467236
:100AA0006571203A202538640D0A0000434C4B5FE5
:100AB00047657450434C4B3046726571203A20258F
:100AC00038640D0A00000000434C4B5F47657450CA
:100AD000434C4B3146726571203A202538640D0A2B
:100AE000000000004A0501D5682282610A0503D58D
:100AF000426901231A4342618A0401D5064A826190
:100B00004A0401D5426C4264090403D58021C161C5
:100B1000816B8163704700000100000142680A4355
:100B20004260074B012212030649984201D10A6034
:100B30007047054B9842FAD1012040030860704786
:100B40000000054000E100E000001540F0B504465B
:100B50001C480D460FC885B06E460FC61A4841693D
:100B600080698A010321960F0005070F002020638A
:100B7000E160A06815490840A060012E02D1FFF78E
:100B8000AFFB0190002D1BD0B10068464058791C86
:100B9000FFF7BCFA0646690840182946FFF7B6FA7F
:100BA0000B49801E884207D9E90070182946FFF7D3
:100BB000ADFA0009801E02E00321090708436062C4
:100BC00005B0F0BDD0110000000200500FFFF0FF93
:100BD000FFFF000010B50D480068C0B2782813D0A0
:100BE000582811D07F2803D909A000F01BF810BDA8
:100BF0005A2809D004DC3128F9D05828F7D103E06D
:100C0000782801D07A28F2D1FFF74CFC000005408B
:100C1000696E76616C696420636F6D6D616E640DE1
:100C20000A0000000FB410B503A9044B044A02984F
:100C300000F018F810BC08BC04B01847D910000028
:100C40001800002002E008C8121F08C1002AFAD1CB
:100C500070477047002001E001C1121F002AFBD13C
:100C600070470000FFB591B00F460546002606E02C
:100C700025280AD0149A139990476D1C761C287861
:100C80000028F5D1304615B0F0BD002400940121B4
:100C9000F34A029400E004436D1C2B780846203B85
:100CA00098401042F7D128782A280ED002212878BF
:100CB0000246303A092A15D8009A0A235A43303A94
:100CC00080180C436D1C0090F1E701CF00900028C4
:100CD00005DA0120400304430098404200900220BE
:100CE00004436D1C28782E2815D10420044368780D
:100CF0006D1C2A280AD101CF6D1C02900BE00299CD
:100D00000A225143303940186D1C02902878014660
:100D100030390929F3D928786C2810D006DC4C2802
:100D20001AD068280ED06A2817D104E0742813D08E
:100D30007A2812D110E00120400504430CE0012183
:100D4000090501E0032109050C436978814203D1BB
:100D50000120000524186D1C6D1C287803906E2856
:100D60001ED00CDC632831D004DC00288AD058283F
:100D700011D1B2E064287BD069280CD178E07328C7
:100D80002DD004DC6F2870D0702804D1A7E075281E
:100D90006CD078286BD0149A13999047761C62E037
:100DA0006002400F022807D003280AD004283868C0
:100DB0000AD006603F1D56E03868F11706604160B2
:100DC000F8E738680680F5E70670F3E73878694693
:100DD00008740020487404A80390012003E03868D8
:100DE00003900020C0433F1D61070FD5002101E0A3
:100DF0000199491C029A0191914213DA8142F7DB71
:100E0000019A0399895C0029F2D10BE0002101E0ED
:100E10000199491C01918142FADB019A0399895C8D
:100E20000029F5D101990098139A401A00902146A3
:100E3000149B00F03BF901998019461807E00398CC
:100E400003990078491C0391149A139990470198CB
:100E5000401E0190401CF2D12146149B139A009829
:100E600000F014F986196D1C09E741E033E034E025
:100E70000A200021049005916002410F022905D04B
:100E800001CFC2179446032905D007E0FF1DFF08D4
:100E9000FF0003CF06E000B2C2179446042902D136
:100EA00040B2C1178C4600226146944506DA0A46D4
:100EB0000021404291418C462D2102E0210504D5BC
:100EC0002B216A461176012103E0E10701D02021A0
:100ED000F7E7019154E00A200BE0102009E0102010
:100EE000049000210420044308200591029003E0AF
:100EF00008200021059104906002410F022905D0CD
:100F000001CF00229446032906D006E0FF1DFF080A
:100F1000FF0003CF8C4603E080B2042900D1C0B2A9
:100F20000021019121072BD50399702906D0049A3D
:100F30001021059B4A401A4305D00EE040216A4625
:100F40001176012108E06146014306D030216A464E
:100F500011760399517602210191049A0821059B8B
:100F60004A401A430CD16146014301D1610707D5BC
:100F700030216A461176012101910299491E0291A0
:100F80000399582904D037A103910FA90F910DE0BF
:100F900039A1F9E76146059B049AFFF7DFF8039B47
:100FA0008C469B5C0F9A521E0F9213706146014350
:100FB000F0D10F9807A9081A20300390600704D5D4
:100FC000012000048443029801E00120029003996B
:100FD000884201DD401A00E000204118029001988B
:100FE00009180098401A0090E00306D42146149B8B
:100FF000139A009800F05AF886190020049008E02F
:1010000006A9085C149A139990470498401C761C12
:10101000049001998842F3DBE0030CD52146149B30
:10102000139A009800F042F8861904E0149A3020D0
:1010300013999047761C0299481E02900029F5DC0E
:1010400008E00F980F990078491C0F91149A139992
:101050009047761C0399481E03900029F1DCFBE6BB
:10106000092801003031323334353637383961627E
:101070006364656600000000303132333435363742
:10108000383941424344454600000000F8B5044663
:1010900000251E461746880404D405E03946202062
:1010A000B0476D1C641EF9D52846F8BDFFB504464F
:1010B000002581B01E46C80301D5302700E0202757
:1010C000880404D505E038460399B0476D1C641EBA
:1010D000F9D5284605B0F0BD00B50346FFF76EFB15
:1010E000184600BDFFF7E8FAFFF782FCFFF7E8F9C2
:1010F000FFF7BEFBFEE7000010B50446016810A034
:10110000FFF790FD11A06168FFF78CFD12A0A168A8
:10111000FFF788FD13A0E168FFF784FD14A02169A3
:10112000FFF780FD15A06169FFF77CFD16A0A1699E
:10113000FFF778FD17A0E169FFF774FD10BD00000F
:10114000723020203D20307825780A00723120202E
:101150003D20307825780A00723220203D203078FA
:1011600025780A00723320203D20307825780A0047
:10117000723132203D20307825780A006C722020B0
:101180003D20307825780A00706320203D2030789B
:1011900025780A00707372203D20307825780A0087
:1011A00002488168491C8160704700000C000020E3
:1011B000001BB7000080000000E04804102700007A
:1011C000006CDC0200000000000000000080510103
:1011D000001BB700000000000080000000805101EB
:1011E000001BB700000000000080000000805101DB
:1011F000001BB700000000000080000000805101CB
:1012000000000000200000000000000004000000BA
:101210000C0000002400000000000000040000009A
:101220002C00000000000000040000002C00000062
:10123000001BB7000080000000000000000000005C
:101240000000000010270000000000000080510195
:1012500070120000000000201C000000440C000080
:101260008C1200001C00002004040000540C00003C
:1012700000E048044700000000E04804F4010000DA
:0C12800000000000000000000000000062
:04000005000000F106
:00000001FF
